{
  "_format": "hh-sol-artifact-1",
  "contractName": "FlexiScheme",
  "sourceName": "contracts/flexicontract (1).sol",
  "abi": [
    {
      "anonymous": false,
      "inputs": [
        {
          "indexed": true,
          "internalType": "uint256",
          "name": "schemeId",
          "type": "uint256"
        },
        {
          "indexed": false,
          "internalType": "string",
          "name": "jewellerName",
          "type": "string"
        },
        {
          "indexed": true,
          "internalType": "address",
          "name": "customer",
          "type": "address"
        }
      ],
      "name": "GoldWithdrawalRequested",
      "type": "event"
    },
    {
      "anonymous": false,
      "inputs": [
        {
          "indexed": true,
          "internalType": "uint256",
          "name": "schemeId",
          "type": "uint256"
        },
        {
          "indexed": false,
          "internalType": "string",
          "name": "jewellerName",
          "type": "string"
        },
        {
          "indexed": true,
          "internalType": "address",
          "name": "customer",
          "type": "address"
        }
      ],
      "name": "GoldWithdrawn",
      "type": "event"
    },
    {
      "anonymous": false,
      "inputs": [
        {
          "indexed": true,
          "internalType": "uint256",
          "name": "schemeId",
          "type": "uint256"
        },
        {
          "indexed": false,
          "internalType": "string",
          "name": "jewellerName",
          "type": "string"
        },
        {
          "indexed": true,
          "internalType": "address",
          "name": "customer",
          "type": "address"
        },
        {
          "indexed": false,
          "internalType": "uint256",
          "name": "monthlyAmount",
          "type": "uint256"
        },
        {
          "indexed": false,
          "internalType": "uint256",
          "name": "paidMonths",
          "type": "uint256"
        }
      ],
      "name": "PaymentReceived",
      "type": "event"
    },
    {
      "inputs": [
        {
          "internalType": "string",
          "name": "_jewellerName",
          "type": "string"
        },
        {
          "internalType": "string",
          "name": "_schemeName",
          "type": "string"
        },
        {
          "internalType": "uint256",
          "name": "_totalAmount",
          "type": "uint256"
        },
        {
          "internalType": "uint256",
          "name": "_monthlyAmount",
          "type": "uint256"
        }
      ],
      "name": "createScheme",
      "outputs": [
        {
          "internalType": "uint256",
          "name": "",
          "type": "uint256"
        }
      ],
      "stateMutability": "nonpayable",
      "type": "function"
    },
    {
      "inputs": [
        {
          "internalType": "uint256",
          "name": "_schemeId",
          "type": "uint256"
        }
      ],
      "name": "makePayment",
      "outputs": [],
      "stateMutability": "payable",
      "type": "function"
    },
    {
      "inputs": [
        {
          "internalType": "uint256",
          "name": "",
          "type": "uint256"
        }
      ],
      "name": "schemes",
      "outputs": [
        {
          "internalType": "string",
          "name": "jewellerName",
          "type": "string"
        },
        {
          "internalType": "string",
          "name": "schemeName",
          "type": "string"
        },
        {
          "internalType": "uint256",
          "name": "totalAmount",
          "type": "uint256"
        },
        {
          "internalType": "uint256",
          "name": "monthlyAmount",
          "type": "uint256"
        },
        {
          "internalType": "uint256",
          "name": "paidMonths",
          "type": "uint256"
        },
        {
          "internalType": "bool",
          "name": "isActive",
          "type": "bool"
        },
        {
          "internalType": "bool",
          "name": "isGoldWithdrawalRequested",
          "type": "bool"
        },
        {
          "internalType": "bool",
          "name": "isGoldWithdrawn",
          "type": "bool"
        }
      ],
      "stateMutability": "view",
      "type": "function"
    },
    {
      "inputs": [
        {
          "internalType": "string",
          "name": "",
          "type": "string"
        },
        {
          "internalType": "uint256",
          "name": "",
          "type": "uint256"
        }
      ],
      "name": "schemesByJeweller",
      "outputs": [
        {
          "internalType": "string",
          "name": "jewellerName",
          "type": "string"
        },
        {
          "internalType": "string",
          "name": "schemeName",
          "type": "string"
        },
        {
          "internalType": "uint256",
          "name": "totalAmount",
          "type": "uint256"
        },
        {
          "internalType": "uint256",
          "name": "monthlyAmount",
          "type": "uint256"
        },
        {
          "internalType": "uint256",
          "name": "paidMonths",
          "type": "uint256"
        },
        {
          "internalType": "bool",
          "name": "isActive",
          "type": "bool"
        },
        {
          "internalType": "bool",
          "name": "isGoldWithdrawalRequested",
          "type": "bool"
        },
        {
          "internalType": "bool",
          "name": "isGoldWithdrawn",
          "type": "bool"
        }
      ],
      "stateMutability": "view",
      "type": "function"
    },
    {
      "inputs": [
        {
          "internalType": "uint256",
          "name": "_schemeId",
          "type": "uint256"
        }
      ],
      "name": "withdrawGold",
      "outputs": [],
      "stateMutability": "nonpayable",
      "type": "function"
    }
  ],
  "bytecode": "0x6080604052600060025534801561001557600080fd5b50611af2806100256000396000f3fe60806040526004361061004a5760003560e01c80634239ba231461004f5780635114cb521461008c5780638e22cdd3146100a85780639835e092146100ec578063bb52085e14610115575b600080fd5b34801561005b57600080fd5b5061007660048036038101906100719190611259565b610159565b6040516100839190611706565b60405180910390f35b6100a660048036038101906100a19190611340565b61046a565b005b3480156100b457600080fd5b506100cf60048036038101906100ca91906112ec565b6107a5565b6040516100e398979695949392919061155a565b60405180910390f35b3480156100f857600080fd5b50610113600480360381019061010e9190611340565b610947565b005b34801561012157600080fd5b5061013c60048036038101906101379190611340565b610da3565b60405161015098979695949392919061155a565b60405180910390f35b60006002600081548092919061016e906118a2565b919050555060405180610120016040528086815260200185815260200184815260200183815260200160008152602001600115158152602001600015158152602001600015158152602001600067ffffffffffffffff8111156101fa577f4e487b7100000000000000000000000000000000000000000000000000000000600052604160045260246000fd5b6040519080825280602002602001820160405280156102285781602001602082028036833780820191505090505b508152506000806002548152602001908152602001600020600082015181600001908051906020019061025c929190610fd0565b506020820151816001019080519060200190610279929190610fd0565b5060408201518160020155606082015181600301556080820151816004015560a08201518160050160006101000a81548160ff02191690831515021790555060c08201518160050160016101000a81548160ff02191690831515021790555060e08201518160050160026101000a81548160ff021916908315150217905550610100820151816006019080519060200190610315929190611056565b50905050600080600254815260200190815260200160002060018660405161033d9190611543565b90815260200160405180910390206000600254815260200190815260200160002060008201816000019080546103729061183f565b61037d9291906110e0565b5060018201816001019080546103929061183f565b61039d9291906110e0565b506002820154816002015560038201548160030155600482015481600401556005820160009054906101000a900460ff168160050160006101000a81548160ff0219169083151502179055506005820160019054906101000a900460ff168160050160016101000a81548160ff0219169083151502179055506005820160029054906101000a900460ff168160050160026101000a81548160ff021916908315150217905550600682018160060190805461045992919061116d565b509050506002549050949350505050565b600080600083815260200190815260200160002090508060050160009054906101000a900460ff166104d1576040517f08c379a00000000000000000000000000000000000000000000000000000000081526004016104c890611686565b60405180910390fd5b8060050160029054906101000a900460ff1615610523576040517f08c379a000000000000000000000000000000000000000000000000000000000815260040161051a906116e6565b60405180910390fd5b80600301543414610569576040517f08c379a000000000000000000000000000000000000000000000000000000000815260040161056090611646565b60405180910390fd5b600b8160040154106105b0576040517f08c379a00000000000000000000000000000000000000000000000000000000081526004016105a7906116a6565b60405180910390fd5b8060040160008154809291906105c5906118a2565b919050555061065c8160060180548060200260200160405190810160405280929190818152602001828054801561065157602002820191906000526020600020905b8160009054906101000a900473ffffffffffffffffffffffffffffffffffffffff1673ffffffffffffffffffffffffffffffffffffffff1681526020019060010190808311610607575b505050505033610f22565b6106c65780600601339080600181540180825580915050600190039060005260206000200160009091909190916101000a81548173ffffffffffffffffffffffffffffffffffffffff021916908373ffffffffffffffffffffffffffffffffffffffff1602179055505b3373ffffffffffffffffffffffffffffffffffffffff16827f8c4ac8f0f20113af973d2b5fa8160213d079dcf0fe5f0a8df8a0d3a6276f1baf836000018460030154856004015460405161071c93929190611608565b60405180910390a36003816004015414156107a15760018160050160016101000a81548160ff0219169083151502179055503373ffffffffffffffffffffffffffffffffffffffff16827f2b3df165fe216bad03f40127b0211a02b4ff4d10446df7d533a5bea2099de3168360000160405161079891906115e6565b60405180910390a35b5050565b600182805160208101820180518482526020830160208501208183528095505050505050602052806000526040600020600091509150508060000180546107eb9061183f565b80601f01602080910402602001604051908101604052809291908181526020018280546108179061183f565b80156108645780601f1061083957610100808354040283529160200191610864565b820191906000526020600020905b81548152906001019060200180831161084757829003601f168201915b5050505050908060010180546108799061183f565b80601f01602080910402602001604051908101604052809291908181526020018280546108a59061183f565b80156108f25780601f106108c7576101008083540402835291602001916108f2565b820191906000526020600020905b8154815290600101906020018083116108d557829003601f168201915b5050505050908060020154908060030154908060040154908060050160009054906101000a900460ff16908060050160019054906101000a900460ff16908060050160029054906101000a900460ff16905088565b600080600083815260200190815260200160002090508060050160009054906101000a900460ff166109ae576040517f08c379a00000000000000000000000000000000000000000000000000000000081526004016109a590611686565b60405180910390fd5b8060050160019054906101000a900460ff166109ff576040517f08c379a00000000000000000000000000000000000000000000000000000000081526004016109f690611666565b60405180910390fd5b610a9181600601805480602002602001604051908101604052809291908181526020018280548015610a8657602002820191906000526020600020905b8160009054906101000a900473ffffffffffffffffffffffffffffffffffffffff1673ffffffffffffffffffffffffffffffffffffffff1681526020019060010190808311610a3c575b505050505033610f22565b610ad0576040517f08c379a0000000000000000000000000000000000000000000000000000000008152600401610ac7906116c6565b60405180910390fd5b60005b8160060180549050811015610d01573373ffffffffffffffffffffffffffffffffffffffff16826006018281548110610b35577f4e487b7100000000000000000000000000000000000000000000000000000000600052603260045260246000fd5b9060005260206000200160009054906101000a900473ffffffffffffffffffffffffffffffffffffffff1673ffffffffffffffffffffffffffffffffffffffff161415610cee578160060160018360060180549050610b9491906117b3565b81548110610bcb577f4e487b7100000000000000000000000000000000000000000000000000000000600052603260045260246000fd5b9060005260206000200160009054906101000a900473ffffffffffffffffffffffffffffffffffffffff16826006018281548110610c32577f4e487b7100000000000000000000000000000000000000000000000000000000600052603260045260246000fd5b9060005260206000200160006101000a81548173ffffffffffffffffffffffffffffffffffffffff021916908373ffffffffffffffffffffffffffffffffffffffff16021790555081600601805480610cb4577f4e487b7100000000000000000000000000000000000000000000000000000000600052603160045260246000fd5b6001900381819060005260206000200160006101000a81549073ffffffffffffffffffffffffffffffffffffffff02191690559055610d01565b8080610cf9906118a2565b915050610ad3565b50600081600601805490501415610d305760008160050160006101000a81548160ff0219169083151502179055505b60018160050160026101000a81548160ff0219169083151502179055503373ffffffffffffffffffffffffffffffffffffffff16827fc5c01d3579b42d6932c3f769460f24948f41978e9f7b10eb45b7baabfdff116683600001604051610d9791906115e6565b60405180910390a35050565b6000602052806000526040600020600091509050806000018054610dc69061183f565b80601f0160208091040260200160405190810160405280929190818152602001828054610df29061183f565b8015610e3f5780601f10610e1457610100808354040283529160200191610e3f565b820191906000526020600020905b815481529060010190602001808311610e2257829003601f168201915b505050505090806001018054610e549061183f565b80601f0160208091040260200160405190810160405280929190818152602001828054610e809061183f565b8015610ecd5780601f10610ea257610100808354040283529160200191610ecd565b820191906000526020600020905b815481529060010190602001808311610eb057829003601f168201915b5050505050908060020154908060030154908060040154908060050160009054906101000a900460ff16908060050160019054906101000a900460ff16908060050160029054906101000a900460ff16905088565b600080600090505b8351811015610fc4578273ffffffffffffffffffffffffffffffffffffffff16848281518110610f83577f4e487b7100000000000000000000000000000000000000000000000000000000600052603260045260246000fd5b602002602001015173ffffffffffffffffffffffffffffffffffffffff161415610fb1576001915050610fca565b8080610fbc906118a2565b915050610f2a565b50600090505b92915050565b828054610fdc9061183f565b90600052602060002090601f016020900481019282610ffe5760008555611045565b82601f1061101757805160ff1916838001178555611045565b82800160010185558215611045579182015b82811115611044578251825591602001919060010190611029565b5b50905061105291906111bf565b5090565b8280548282559060005260206000209081019282156110cf579160200282015b828111156110ce5782518260006101000a81548173ffffffffffffffffffffffffffffffffffffffff021916908373ffffffffffffffffffffffffffffffffffffffff16021790555091602001919060010190611076565b5b5090506110dc91906111bf565b5090565b8280546110ec9061183f565b90600052602060002090601f01602090048101928261110e576000855561115c565b82601f1061111f578054855561115c565b8280016001018555821561115c57600052602060002091601f016020900482015b8281111561115b578254825591600101919060010190611140565b5b50905061116991906111bf565b5090565b8280548282559060005260206000209081019282156111ae5760005260206000209182015b828111156111ad578254825591600101919060010190611192565b5b5090506111bb91906111bf565b5090565b5b808211156111d85760008160009055506001016111c0565b5090565b60006111ef6111ea84611746565b611721565b90508281526020810184848401111561120757600080fd5b6112128482856117fd565b509392505050565b600082601f83011261122b57600080fd5b813561123b8482602086016111dc565b91505092915050565b60008135905061125381611aa5565b92915050565b6000806000806080858703121561126f57600080fd5b600085013567ffffffffffffffff81111561128957600080fd5b6112958782880161121a565b945050602085013567ffffffffffffffff8111156112b257600080fd5b6112be8782880161121a565b93505060406112cf87828801611244565b92505060606112e087828801611244565b91505092959194509250565b600080604083850312156112ff57600080fd5b600083013567ffffffffffffffff81111561131957600080fd5b6113258582860161121a565b925050602061133685828601611244565b9150509250929050565b60006020828403121561135257600080fd5b600061136084828501611244565b91505092915050565b611372816117e7565b82525050565b60006113838261178c565b61138d8185611797565b935061139d81856020860161180c565b6113a681611978565b840191505092915050565b60006113bc8261178c565b6113c681856117a8565b93506113d681856020860161180c565b80840191505092915050565b600081546113ef8161183f565b6113f98186611797565b94506001821660008114611414576001811461142657611459565b60ff1983168652602086019350611459565b61142f85611777565b60005b8381101561145157815481890152600182019150602081019050611432565b808801955050505b50505092915050565b600061146f601883611797565b915061147a82611989565b602082019050919050565b6000611492602683611797565b915061149d826119b2565b604082019050919050565b60006114b5601483611797565b91506114c082611a01565b602082019050919050565b60006114d8601b83611797565b91506114e382611a2a565b602082019050919050565b60006114fb601383611797565b915061150682611a53565b602082019050919050565b600061151e601f83611797565b915061152982611a7c565b602082019050919050565b61153d816117f3565b82525050565b600061154f82846113b1565b915081905092915050565b6000610100820190508181036000830152611575818b611378565b90508181036020830152611589818a611378565b90506115986040830189611534565b6115a56060830188611534565b6115b26080830187611534565b6115bf60a0830186611369565b6115cc60c0830185611369565b6115d960e0830184611369565b9998505050505050505050565b6000602082019050818103600083015261160081846113e2565b905092915050565b6000606082019050818103600083015261162281866113e2565b90506116316020830185611534565b61163e6040830184611534565b949350505050565b6000602082019050818103600083015261165f81611462565b9050919050565b6000602082019050818103600083015261167f81611485565b9050919050565b6000602082019050818103600083015261169f816114a8565b9050919050565b600060208201905081810360008301526116bf816114cb565b9050919050565b600060208201905081810360008301526116df816114ee565b9050919050565b600060208201905081810360008301526116ff81611511565b9050919050565b600060208201905061171b6000830184611534565b92915050565b600061172b61173c565b90506117378282611871565b919050565b6000604051905090565b600067ffffffffffffffff82111561176157611760611949565b5b61176a82611978565b9050602081019050919050565b60008190508160005260206000209050919050565b600081519050919050565b600082825260208201905092915050565b600081905092915050565b60006117be826117f3565b91506117c9836117f3565b9250828210156117dc576117db6118eb565b5b828203905092915050565b60008115159050919050565b6000819050919050565b82818337600083830152505050565b60005b8381101561182a57808201518184015260208101905061180f565b83811115611839576000848401525b50505050565b6000600282049050600182168061185757607f821691505b6020821081141561186b5761186a61191a565b5b50919050565b61187a82611978565b810181811067ffffffffffffffff8211171561189957611898611949565b5b80604052505050565b60006118ad826117f3565b91507fffffffffffffffffffffffffffffffffffffffffffffffffffffffffffffffff8214156118e0576118df6118eb565b5b600182019050919050565b7f4e487b7100000000000000000000000000000000000000000000000000000000600052601160045260246000fd5b7f4e487b7100000000000000000000000000000000000000000000000000000000600052602260045260246000fd5b7f4e487b7100000000000000000000000000000000000000000000000000000000600052604160045260246000fd5b6000601f19601f8301169050919050565b7f496e636f7272656374207061796d656e7420616d6f756e740000000000000000600082015250565b7f476f6c64207769746864726177616c20686173206e6f74206265656e2072657160008201527f7565737465640000000000000000000000000000000000000000000000000000602082015250565b7f536368656d65206973206e6f7420616374697665000000000000000000000000600082015250565b7f416c6c207061796d656e74732068617665206265656e206d6164650000000000600082015250565b7f556e617574686f72697a65642061636365737300000000000000000000000000600082015250565b7f476f6c642068617320616c7265616479206265656e2077697468647261776e00600082015250565b611aae816117f3565b8114611ab957600080fd5b5056fea26469706673582212206c06be30fc726e9eff80997c1011d8c026f5a9aff4be87bdf50896b0495d861664736f6c63430008040033",
  "linkReferences": {},
  "deployedLinkReferences": {}
}