{
  "_format": "hh-sol-artifact-1",
  "contractName": "Flexi",
  "sourceName": "contracts/BlockFlexi.sol",
  "abi": [
    {
      "inputs": [
        {
          "internalType": "string",
          "name": "_customerName",
          "type": "string"
        },
        {
          "internalType": "address",
          "name": "_customerAddress",
          "type": "address"
        },
        {
          "internalType": "string",
          "name": "_jewellerName",
          "type": "string"
        },
        {
          "internalType": "address",
          "name": "_jewellerAddress",
          "type": "address"
        },
        {
          "internalType": "string",
          "name": "_schemeName",
          "type": "string"
        },
        {
          "internalType": "uint256",
          "name": "_totalSchemeAmount",
          "type": "uint256"
        }
      ],
      "name": "addCustomerScheme",
      "outputs": [],
      "stateMutability": "nonpayable",
      "type": "function"
    },
    {
      "inputs": [
        {
          "internalType": "bytes32",
          "name": "",
          "type": "bytes32"
        }
      ],
      "name": "customerSchemeIndexes",
      "outputs": [
        {
          "internalType": "uint256",
          "name": "",
          "type": "uint256"
        }
      ],
      "stateMutability": "view",
      "type": "function"
    },
    {
      "inputs": [
        {
          "internalType": "uint256",
          "name": "",
          "type": "uint256"
        }
      ],
      "name": "customerSchemes",
      "outputs": [
        {
          "internalType": "string",
          "name": "customerName",
          "type": "string"
        },
        {
          "internalType": "address",
          "name": "customerAddress",
          "type": "address"
        },
        {
          "internalType": "string",
          "name": "jewellerName",
          "type": "string"
        },
        {
          "internalType": "address",
          "name": "jewellerAddress",
          "type": "address"
        },
        {
          "internalType": "string",
          "name": "schemeName",
          "type": "string"
        },
        {
          "internalType": "uint256",
          "name": "totalSchemeAmount",
          "type": "uint256"
        },
        {
          "internalType": "uint256",
          "name": "balance",
          "type": "uint256"
        }
      ],
      "stateMutability": "view",
      "type": "function"
    },
    {
      "inputs": [
        {
          "internalType": "address",
          "name": "",
          "type": "address"
        }
      ],
      "name": "getBalance",
      "outputs": [
        {
          "internalType": "uint256",
          "name": "result",
          "type": "uint256"
        }
      ],
      "stateMutability": "view",
      "type": "function"
    }
  ],
  "bytecode": "0x608060405234801561001057600080fd5b50610f62806100206000396000f3fe608060405234801561001057600080fd5b506004361061004c5760003560e01c8063c0a0780914610051578063f1d02ec41461006d578063f8b2cb4f1461009d578063fe519569146100cd575b600080fd5b61006b60048036038101906100669190610838565b610103565b005b6100876004803603810190610082919061094f565b610394565b604051610094919061098b565b60405180910390f35b6100b760048036038101906100b291906109a6565b6103ac565b6040516100c4919061098b565b60405180910390f35b6100e760048036038101906100e291906109d3565b6103b6565b6040516100fa9796959493929190610a8e565b60405180910390f35b600086838660405160200161011a93929190610b4e565b60405160208183030381529060405280519060200120905060008060008381526020019081526020016000205414610187576040517f08c379a000000000000000000000000000000000000000000000000000000000815260040161017e90610bcb565b60405180910390fd5b600180805490506101989190610c1a565b6000808381526020019081526020016000208190555060016040518061010001604052808981526020018873ffffffffffffffffffffffffffffffffffffffff1681526020018781526020018673ffffffffffffffffffffffffffffffffffffffff168152602001858152602001848152602001848152602001600067ffffffffffffffff81111561022d5761022c610679565b5b60405190808252806020026020018201604052801561025b5781602001602082028036833780820191505090505b508152509080600181540180825580915050600190039060005260206000209060080201600090919091909150600082015181600001908161029d9190610e5a565b5060208201518160010160006101000a81548173ffffffffffffffffffffffffffffffffffffffff021916908373ffffffffffffffffffffffffffffffffffffffff16021790555060408201518160020190816102fa9190610e5a565b5060608201518160030160006101000a81548173ffffffffffffffffffffffffffffffffffffffff021916908373ffffffffffffffffffffffffffffffffffffffff16021790555060808201518160040190816103579190610e5a565b5060a0820151816005015560c0820151816006015560e08201518160070190805190602001906103889291906105e0565b50505050505050505050565b60006020528060005260406000206000915090505481565b6000479050919050565b600181815481106103c657600080fd5b90600052602060002090600802016000915090508060000180546103e990610c7d565b80601f016020809104026020016040519081016040528092919081815260200182805461041590610c7d565b80156104625780601f1061043757610100808354040283529160200191610462565b820191906000526020600020905b81548152906001019060200180831161044557829003601f168201915b5050505050908060010160009054906101000a900473ffffffffffffffffffffffffffffffffffffffff169080600201805461049d90610c7d565b80601f01602080910402602001604051908101604052809291908181526020018280546104c990610c7d565b80156105165780601f106104eb57610100808354040283529160200191610516565b820191906000526020600020905b8154815290600101906020018083116104f957829003601f168201915b5050505050908060030160009054906101000a900473ffffffffffffffffffffffffffffffffffffffff169080600401805461055190610c7d565b80601f016020809104026020016040519081016040528092919081815260200182805461057d90610c7d565b80156105ca5780601f1061059f576101008083540402835291602001916105ca565b820191906000526020600020905b8154815290600101906020018083116105ad57829003601f168201915b5050505050908060050154908060060154905087565b82805482825590600052602060002090810192821561061c579160200282015b8281111561061b578251825591602001919060010190610600565b5b509050610629919061062d565b5090565b5b8082111561064657600081600090555060010161062e565b5090565b6000604051905090565b600080fd5b600080fd5b600080fd5b600080fd5b6000601f19601f8301169050919050565b7f4e487b7100000000000000000000000000000000000000000000000000000000600052604160045260246000fd5b6106b182610668565b810181811067ffffffffffffffff821117156106d0576106cf610679565b5b80604052505050565b60006106e361064a565b90506106ef82826106a8565b919050565b600067ffffffffffffffff82111561070f5761070e610679565b5b61071882610668565b9050602081019050919050565b82818337600083830152505050565b6000610747610742846106f4565b6106d9565b90508281526020810184848401111561076357610762610663565b5b61076e848285610725565b509392505050565b600082601f83011261078b5761078a61065e565b5b813561079b848260208601610734565b91505092915050565b600073ffffffffffffffffffffffffffffffffffffffff82169050919050565b60006107cf826107a4565b9050919050565b6107df816107c4565b81146107ea57600080fd5b50565b6000813590506107fc816107d6565b92915050565b6000819050919050565b61081581610802565b811461082057600080fd5b50565b6000813590506108328161080c565b92915050565b60008060008060008060c0878903121561085557610854610654565b5b600087013567ffffffffffffffff81111561087357610872610659565b5b61087f89828a01610776565b965050602061089089828a016107ed565b955050604087013567ffffffffffffffff8111156108b1576108b0610659565b5b6108bd89828a01610776565b94505060606108ce89828a016107ed565b935050608087013567ffffffffffffffff8111156108ef576108ee610659565b5b6108fb89828a01610776565b92505060a061090c89828a01610823565b9150509295509295509295565b6000819050919050565b61092c81610919565b811461093757600080fd5b50565b60008135905061094981610923565b92915050565b60006020828403121561096557610964610654565b5b60006109738482850161093a565b91505092915050565b61098581610802565b82525050565b60006020820190506109a0600083018461097c565b92915050565b6000602082840312156109bc576109bb610654565b5b60006109ca848285016107ed565b91505092915050565b6000602082840312156109e9576109e8610654565b5b60006109f784828501610823565b91505092915050565b600081519050919050565b600082825260208201905092915050565b60005b83811015610a3a578082015181840152602081019050610a1f565b60008484015250505050565b6000610a5182610a00565b610a5b8185610a0b565b9350610a6b818560208601610a1c565b610a7481610668565b840191505092915050565b610a88816107c4565b82525050565b600060e0820190508181036000830152610aa8818a610a46565b9050610ab76020830189610a7f565b8181036040830152610ac98188610a46565b9050610ad86060830187610a7f565b8181036080830152610aea8186610a46565b9050610af960a083018561097c565b610b0660c083018461097c565b98975050505050505050565b600081905092915050565b6000610b2882610a00565b610b328185610b12565b9350610b42818560208601610a1c565b80840191505092915050565b6000610b5a8286610b1d565b9150610b668285610b1d565b9150610b728284610b1d565b9150819050949350505050565b7f437573746f6d657220736368656d6520616c7265616479206578697374732e00600082015250565b6000610bb5601f83610a0b565b9150610bc082610b7f565b602082019050919050565b60006020820190508181036000830152610be481610ba8565b9050919050565b7f4e487b7100000000000000000000000000000000000000000000000000000000600052601160045260246000fd5b6000610c2582610802565b9150610c3083610802565b9250828201905080821115610c4857610c47610beb565b5b92915050565b7f4e487b7100000000000000000000000000000000000000000000000000000000600052602260045260246000fd5b60006002820490506001821680610c9557607f821691505b602082108103610ca857610ca7610c4e565b5b50919050565b60008190508160005260206000209050919050565b60006020601f8301049050919050565b600082821b905092915050565b600060088302610d107fffffffffffffffffffffffffffffffffffffffffffffffffffffffffffffffff82610cd3565b610d1a8683610cd3565b95508019841693508086168417925050509392505050565b6000819050919050565b6000610d57610d52610d4d84610802565b610d32565b610802565b9050919050565b6000819050919050565b610d7183610d3c565b610d85610d7d82610d5e565b848454610ce0565b825550505050565b600090565b610d9a610d8d565b610da5818484610d68565b505050565b5b81811015610dc957610dbe600082610d92565b600181019050610dab565b5050565b601f821115610e0e57610ddf81610cae565b610de884610cc3565b81016020851015610df7578190505b610e0b610e0385610cc3565b830182610daa565b50505b505050565b600082821c905092915050565b6000610e3160001984600802610e13565b1980831691505092915050565b6000610e4a8383610e20565b9150826002028217905092915050565b610e6382610a00565b67ffffffffffffffff811115610e7c57610e7b610679565b5b610e868254610c7d565b610e91828285610dcd565b600060209050601f831160018114610ec45760008415610eb2578287015190505b610ebc8582610e3e565b865550610f24565b601f198416610ed286610cae565b60005b82811015610efa57848901518255600182019150602085019450602081019050610ed5565b86831015610f175784890151610f13601f891682610e20565b8355505b6001600288020188555050505b50505050505056fea2646970667358221220c6754e5f82979008b8fc92aa2619d46e431bf4bed4b46e20d13a062a017cf21c64736f6c63430008120033",
  "linkReferences": {},
  "deployedLinkReferences": {}
}